:020000040800F2
:10000000005000208D200008C11F0008C31F0008F9
:10001000C51F0008C71F0008C91F00080000000016
:10002000000000000000000000000000CB1F0008DE
:10003000CD1F000800000000CF1F0008D11F0008DE
:10004000D5200008D5200008D5200008D5200008BC
:10005000D5200008D5200008D5200008D51F0008AD
:10006000DB1F0008E11F0008E71F0008D52000087B
:10007000D5200008D5200008D5200008D52000088C
:10008000D5200008D5200008D5200008D52000087C
:10009000D5200008D5200008D5200008D52000086C
:1000A000D5200008D5200008D5200008D52000085C
:1000B000D5200008D5200008D5200008D52000084C
:1000C000D5200008D5200008D5200008D52000083C
:1000D000D5200008ED1F0008D5200008D520000815
:1000E000D5200008D5200008D52000080000000019
:1000F0000000000000000000000000000000000000
:0C01000000000000000000005FF808F1A3
:1001100010B5054C237833B9044B13B10448AFF341
:1001200000800123237010BD680000200000000043
:100130006C63000808B5034B1BB103490348AFF3D8
:10014000008008BD000000006C0000206C63000807
:1001500010F8012B11F8013B012A28BF9A42F7D071
:10016000D01A7047034613F8012B002AFBD1181A46
:100170000138704781F0004102E000BF83F0004386
:1001800030B54FEA41044FEA430594EA050F08BF32
:1001900090EA020F1FBF54EA000C55EA020C7FEAF6
:1001A000645C7FEA655C00F0E2804FEA5454D4EB73
:1001B0005555B8BF6D420CDD2C4480EA020281EA3D
:1001C000030382EA000083EA010180EA020281EA75
:1001D0000303362D88BF30BD11F0004F4FEA0131C7
:1001E0004FF4801C4CEA113102D0404261EB4101D6
:1001F00013F0004F4FEA03334CEA133302D052425C
:1002000063EB430394EA050F00F0A780A4F1010417
:10021000D5F1200E0DDB02FA0EFC22FA05F2801851
:1002200041F1000103FA0EF2801843FA05F3594137
:100230000EE0A5F120050EF1200E012A03FA0EFCB6
:1002400028BF4CF0020C43FA05F3C01851EBE371E0
:1002500001F0004507D54FF0000EDCF1000C7EEBFD
:1002600000006EEB0101B1F5801F1BD3B1F5001F3B
:100270000CD349085FEA30004FEA3C0C04F101045A
:100280004FEA445212F5800F80F09A80BCF1004F83
:1002900008BF5FEA500C50F1000041EB045141EA05
:1002A000050130BD5FEA4C0C404141EB0101013CCE
:1002B00028BFB1F5801FE9D291F0000F04BF0146BD
:1002C0000020B1FA81F308BF2033A3F10B03B3F18F
:1002D00020020CDA0C3208DD02F1140CC2F10C021F
:1002E00001FA0CF021FA02F10CE002F11402D8BF7D
:1002F000C2F1200C01FA02F120FA0CFCDCBF41EA49
:100300000C019040E41AA2BF01EB0451294330BD17
:100310006FEA04041F3C1CDA0C340EDC04F11404F4
:10032000C4F1200220FA04F001FA02F340EA0300CB
:1003300021FA04F345EA030130BDC4F10C04C4F111
:10034000200220FA02F001FA04F340EA03002946F1
:1003500030BD21FA04F0294630BD94F0000F83F43B
:10036000801306BF81F480110134013D4EE77FEA1E
:10037000645C18BF7FEA655C29D094EA050F08BF6A
:1003800090EA020F05D054EA000C04BF194610464B
:1003900030BD91EA030F1EBF0021002030BD5FEA8F
:1003A000545C05D14000494128BF41F0004130BDB7
:1003B00014F580043CBF01F5801130BD01F000450B
:1003C00045F0FE4141F470014FF0000030BD7FEA7E
:1003D000645C1ABF194610467FEA655C1CBF0B4679
:1003E000024650EA013406BF52EA033591EA030F90
:1003F00041F4002130BD00BF90F0000F04BF002188
:10040000704730B54FF4806404F132044FF00005BA
:100410004FF0000150E700BF90F0000F04BF002133
:10042000704730B54FF4806404F1320410F0004599
:1004300048BF40424FF000013EE700BF42004FEA94
:10044000E2014FEA31014FEA02701FBF12F07F4311
:1004500093F07F4F81F06051704732F07F4208BFC8
:10046000704793F07F4F04BF41F40021704730B5CF
:100470004FF4607401F0004521F000411CE700BF1B
:1004800050EA010208BF704730B54FF000050AE09E
:1004900050EA010208BF704730B511F0004502D59F
:1004A000404261EB41014FF4806404F132045FEAA1
:1004B000915C3FF4D8AE4FF003025FEADC0C18BF4A
:1004C00003325FEADC0C18BF033202EBDC02C2F13C
:1004D000200300FA03FC20FA02F001FA03FE40EACE
:1004E0000E0021FA02F11444BDE600BF80F0004086
:1004F00002E000BF81F0004142001FBF5FEA4103FC
:1005000092EA030F7FEA226C7FEA236C6AD04FEAFB
:100510001262D2EB1363C1BFD21841404840414040
:10052000B8BF5B42192B88BF704710F0004F40F4F2
:10053000000020F07F4018BF404211F0004F41F40E
:10054000000121F07F4118BF494292EA030F3FD0DA
:10055000A2F1010241FA03FC10EB0C00C3F12003ED
:1005600001FA03F100F0004302D5494260EB40007C
:10057000B0F5000F13D3B0F1807F06D340084FEAE7
:10058000310102F10102FE2A51D2B1F1004F40EBDC
:10059000C25008BF20F0010040EA03007047490044
:1005A00040EB0000013A28BFB0F5000FEDD2B0FAE1
:1005B00080FCACF1080CB2EB0C0200FA0CF0AABF04
:1005C00000EBC25052421843BCBFD04018437047A2
:1005D00092F0000F81F4000106BF80F400000132A8
:1005E000013BB5E74FEA41037FEA226C18BF7FEA7F
:1005F000236C21D092EA030F04D092F0000F08BFC1
:100600000846704790EA010F1CBF0020704712F0A7
:100610007F4F04D1400028BF40F00040704712F1E6
:1006200000723CBF00F50000704700F0004343F04B
:10063000FE4040F4000070477FEA226216BF084681
:100640007FEA23630146420206BF5FEA412390EA44
:10065000010F40F4800070474FF0000304E000BF3A
:1006600010F0004348BF40425FEA000C08BF7047EB
:1006700043F0964301464FF000001CE050EA0102AF
:1006800008BF70474FF000030AE000BF50EA0102C4
:1006900008BF704711F0004302D5404261EB4101B1
:1006A0005FEA010C02BF84460146002043F0B643D6
:1006B00008BFA3F18053A3F50003BCFA8CF2083AFB
:1006C000A3EBC25310DB01FA02FC634400FA02FC04
:1006D000C2F12002BCF1004F20FA02F243EB02000B
:1006E00008BF20F00100704702F1200201FA02FC6D
:1006F000C2F1200250EA4C0021FA02F243EB020060
:1007000008BF20EADC7070474FF0FF0C1CEAD052A3
:100710001EBF1CEAD15392EA0C0F93EA0C0F6FD064
:100720001A4480EA010C400218BF5FEA41211ED042
:100730004FF0006343EA501043EA5111A0FB01312E
:100740000CF00040B1F5000F3EBF490041EAD37103
:100750005B0040EA010062F17F02FD2A1DD8B3F17F
:10076000004F40EBC25008BF20F00100704790F0EE
:10077000000F0CF0004C08BF49024CEA502040EA40
:1007800051207F3AC2BFD2F1FF0340EAC250704706
:1007900040F400004FF00003013A5DDC12F1190F44
:1007A000DCBF00F000407047C2F10002410021FAB6
:1007B00002F1C2F1200200FA02FC5FEA310040F1CE
:1007C000000053EA4C0308BF20EADC70704792F047
:1007D000000F00F0004C02BF400010F4000F013A7F
:1007E000F9D040EA0C0093F0000F01F0004C02BF7A
:1007F000490011F4000F013BF9D041EA0C018FE7E9
:100800000CEAD15392EA0C0F18BF93EA0C0F0AD0EE
:1008100030F0004C18BF31F0004CD8D180EA010014
:1008200000F00040704790F0000F17BF90F0004FAD
:10083000084691F0000F91F0004F14D092EA0C0F8F
:1008400001D142020FD193EA0C0F03D14B0218BF22
:10085000084608D180EA010000F0004040F0FE4068
:1008600040F40000704740F0FE4040F44000704704
:100870004FF0FF0C1CEAD0521EBF1CEAD15392EA83
:100880000C0F93EA0C0F69D0A2EB030280EA010C73
:1008900049024FEA402037D04FF0805343EA11110C
:1008A00043EA10130CF000408B4238BF5B0042F16A
:1008B0007D024FF4000C8B4224BF5B1A40EA0C000F
:1008C000B3EB510F24BFA3EB510340EA5C00B3EB41
:1008D000910F24BFA3EB910340EA9C00B3EBD10F2F
:1008E00024BFA3EBD10340EADC001B0118BF5FEA81
:1008F0001C1CE0D1FD2A3FF650AF8B4240EBC250AA
:1009000008BF20F0010070470CF0004C4CEA50206A
:100910007F32C2BFD2F1FF0340EAC250704740F4B9
:1009200000004FF00003013A37E792F0000F00F0AB
:10093000004C02BF400010F4000F013AF9D040EA29
:100940000C0093F0000F01F0004C02BF490011F4BD
:10095000000F013BF9D041EA0C0195E70CEAD153B5
:1009600092EA0C0F08D142027FF47DAF93EA0C0F9C
:100970007FF470AF084676E793EA0C0F04D14B0280
:100980003FF44CAF08466EE730F0004C18BF31F032
:10099000004CCAD130F000427FF45CAF31F000432C
:1009A0007FF43CAF5FE700BF4FF0FF3C06E000BFC5
:1009B0004FF0010C02E000BF4FF0010C4DF804CDE8
:1009C0004FEA40024FEA41037FEA226C18BF7FEAF8
:1009D000236C11D001B052EA530C18BF90EA010FFA
:1009E00058BFB2EB030088BFC81738BF6FEAE17089
:1009F00018BF40F0010070477FEA226C02D15FEA25
:100A0000402C05D17FEA236CE4D15FEA412CE1D090
:100A10005DF8040B704700BF844608466146FFE757
:100A20000FB5FFF7C9FF002848BF10F1000F0FBD39
:100A30004DF808EDFFF7F4FF0CBF012000205DF832
:100A400008FB00BF4DF808EDFFF7EAFF34BF0120B7
:100A500000205DF808FB00BF4DF808EDFFF7E0FF50
:100A600094BF012000205DF808FB00BF4DF808EDA1
:100A7000FFF7D2FF94BF012000205DF808FB00BF04
:100A80004DF808EDFFF7C8FF34BF012000205DF8E6
:100A900008FB00BF4FEA4002B2F1FE4F0FD34FF008
:100AA0009E03B3EB12620DD94FEA002343F00043DB
:100AB00010F0004F23FA02F018BF404270474FF089
:100AC0000000704712F1610F01D1420205D110F010
:100AD000004008BF6FF0004070474FF000007047C3
:100AE000416002701146014803F088BEB4630008FB
:100AF00030B587B001238DF817206422CDE901328B
:100B00000DF1170200920D460A460178406802F086
:100B100071F8044630B1034629469DF81720034872
:100B200003F06CFE204607B030BD00BFE363000851
:100B300030B501230D46642185B0CDE90131009225
:100B400001782A46406802F0E5F8044620B10246E2
:100B50002946034803F052FE204605B030BD00BFD1
:100B60002164000838B50A460D460F210446FFF7F8
:100B7000BFFF10B10124204638BD20462A4610216F
:100B8000FFF7B6FF04460028F4D12946014803F0D8
:100B900035FEF0E750640008002373B50D460DF1F3
:100BA00006020F2106468DF806308DF80730FFF754
:100BB000BFFF044628B1104803F090FE204602B063
:100BC00070BD102130460DF10702FFF7B1FF04465A
:100BD00008B10A48F0E79DF806109DF807209142F9
:100BE00002D0074803F00AFE9DF806100548297058
:100BF00003F004FEE2E700BF7E640008BC64000866
:100C0000FB640008576500081FB500238DF80C3001
:100C100064238DF80D0000937821022303AA034872
:100C200001F00EFF05B05DF804FB00BF4801002095
:100C30001FB540238DF80C3064238DF80D00009310
:100C40007821022303AA034801F0FAFE05B05DF8FB
:100C500004FB00BF480100207F2928BF7F210F2807
:100C600028BF0F2010B50C465038C0B2FFF7CCFF9C
:100C700004F00F00FFF7C8FF20091030BDE8104056
:100C8000FFF7C2BF38B500250021E8B2FFF7E4FF47
:100C900080240020013CFFF7CBFF14F0FF04F8D1C3
:100CA0000135102DF0D138BD2DE9F843441EE4B2D2
:100CB000072C164630D84D1EEDB20F2D2CD86400EF
:100CC000ED00E4B2EDB229462046FFF7C5FF6FF410
:100CD00000724FF00809114F4FEA06189044B844CB
:100CE00018F8010F09F1FF39FFF7A2FF19F0FF090A
:100CF000F6D1601C2946C0B2FFF7AEFF6FF4FC735B
:100D0000082407EB06171F4417F8010F013CFFF7F3
:100D10008FFF14F0FF04F7D1BDE8F88314740008C6
:100D2000F8B506460F46154600242A5D02B9F8BDFF
:100D3000E1193046C9B20134FFF7B6FFE4B2F4E777
:100D40002DE9F84307460D4690464FF00A095E1E0E
:100D5000731C15D1BDE8F88309FB04F4013BFBD2F9
:100D6000B8FBF4F4B4FBF9F309FB1344303429461F
:100D70003846E2B20135FFF797FFEDB2013EE7E7F3
:100D800033460124EAE708B5642001F0EDF9AE200E
:100D9000FFF73AFFA820FFF737FF7F20FFF734FF68
:100DA000D320FFF731FF0020FFF72EFF4020FFF791
:100DB0002BFFA020FFF728FFC020FFF725FFDA2038
:100DC000FFF722FF1220FFF71FFF8120FFF71CFF14
:100DD0008020FFF719FFA420FFF716FFA620FFF7DA
:100DE00013FFD520FFF710FF5020FFF70DFF8D20D8
:100DF000FFF70AFF1420FFF707FFAF20FFF704FFFC
:100E0000BDE80840FFF73EBF07B54FF6FF730190FE
:100E1000012201A9034802F008FC019803B05DF823
:100E200004FB00BF0001002010B590B01422002187
:100E300008A803F09DFE1422002101A803F098FEEB
:100E400002244FF480330122CDE90D43CDE906237E
:100E50004FF4E01306A80A920F9302F09FF808B12E
:100E600072B6FEE70F238022CDE901344FF4806390
:100E70000590214601A8CDE9032302F051FA08B1FB
:100E800072B6FEE710B010BD38B5054601F066F940
:100E9000022D04461AD12946394801F015FBA0B9A4
:100EA000384A1368E31AC72B0FD9374B14601A78E6
:100EB0000132D2B21A701A78022A88BF18701978D3
:100EC000324803F09BFC324B1C6038BD042DFCD132
:100ED00029462B4801F0F8FA0028F6D12C4B00F1F6
:100EE0008040082100F584301C6001F0EDFA264BAB
:100EF00001281B7814BF01204FF0FF30012BD9B21D
:100F000016D0022928D00029DFD1224A01281378DF
:100F10000AD10BB1013B137011781F4803F06EFC2E
:100F200001221E4B1A70D0E7FF2BF5D00133F2E7F8
:100F30001B4A012811780AD103230131B1FBF3F3D5
:100F400003EB4303C91AC9B216481170E6E709B1A9
:100F50000139F8E70221F7E7134C012823780AD179
:100F600003220133B3FBF2F202EB42029B1AD9B225
:100F70000E482170D2E7002BFAD0013BF7E700BF03
:100F800000080140EC000020F40000208665000805
:100F9000F0000020F70000209C650008E800002019
:100FA000F6000020AE650008F5000020BD650008D1
:100FB00008B50268174B9A422BD1174B174A18787D
:100FC00013880D2801D00A280ED133B1002114480E
:100FD0001180C1540120134B18700122BDE8084054
:100FE0000D49114802F039BD082801D07F2807D1EA
:100FF000002BF2D0013B0D48138003F0FFFBECE720
:101000001E2BEAD8591C1180054AD05403F008FC65
:10101000E3E708BD00380140A8000020860000205A
:10102000880000208400002000010020CD65000819
:101030000FB400B5A3B024AB53F8042B802102A851
:10104000019303F0F3FC02A9034803F0D7FB23B09C
:101050005DF804EB04B07047D165000807B513498B
:101060000DF1060203F042FC012815D19DF806108F
:101070000F480DF10702FFF75BFD9DF8061038B928
:101080009DF807200B48FFF7D3FF03B05DF804FB82
:101090000948FFF7CDFFF8E70848FFF7C9FF084800
:1010A000FFF7C6FF0748FFF7C3FFEEE7D665000866
:1010B000F8000020DB650008F465000812660008EF
:1010C0002E6600083E66000837B5044601462148F2
:1010D000FFF7AEFF6A4620461F4901AB03F006FC4E
:1010E000DDE90023044601461C4803F087FB022C7F
:1010F00025D1009CFF2C02D8019DFF2D09D918484D
:10110000FFF796FFDDE900121648FFF791FF03B0E5
:1011100030BD224629461448FFF78AFF0A2001F015
:1011200023F8EAB21148E1B2FFF7E2FC024618B92F
:101130002A4621460E48E8E721460E48E5E72146C3
:101140000D48FFF775FF0D48FFF772FF0C48FFF7DA
:101150006FFFDCE74C6600087266000878660008DE
:10116000A5660008D8660008F8660008F8000020A8
:101170001A6700083467000862670008966700086D
:10118000AE67000837B51E210DF106022548FFF7AE
:10119000CFFC0DF107021A212248FFF7C9FC2248B3
:1011A000FFF746FF9DF806102048FFF741FF9DF826
:1011B00007101F48FFF73CFF9DF806301D4D1E4CE1
:1011C00013F0010F0CBF294621461C48FFF730FFE2
:1011D0009DF806301A4813F0020F0CBF294621462D
:1011E000FFF726FF9DF80630164913F0040F164B43
:1011F000164818BF1946FFF71BFF154A154B9DF9F6
:101200000710154832EA210128BF1946FFF710FFE1
:101210009DF80710114801F07F01FFF709FF03B0A7
:1012200030BD00BFF8000020096800081F680008F2
:101230003D680008D6670008CE67000858680008B7
:101240006A680008EE670008DF6700087A6800082F
:1012500002680008FB6700088E680008A0680008A4
:1012600013B514490DF1060203F040FB01281CD10F
:10127000BDF80640FF2C14D80F4B1C700F4B187094
:101280002046FFF7EDF94FF07C51FFF73DFAFFF7ED
:10129000D5F802460B460A482146FFF7C9FE02B0C0
:1012A00010BD0848FFF7C4FEF9E70748FFF7C0FE86
:1012B0000648F7E7B5680008F7000020E8000020BE
:1012C000B9680008D9680008ED6800080A690008D4
:1012D0001FB514490DF1030203F008FB01281CD1CE
:1012E0009DF80330022B14D80F4A0DF1100C137027
:1012F0000E4A10700E4A07CA0CE907000CEB830275
:10130000194652F80C2C0B48FFF792FE05B05DF819
:1013100004FB0948FFF78CFEF8E70848FFF788FE52
:101320000748F7E71F690008F6000020E8000020E2
:101330008463000824690008396900084B690008C3
:10134000686900081FB514490DF1030203F0CEFAD5
:1013500001281CD19DF80330022B14D80F4A0DF13F
:10136000100C13700E4A10700E4A07CA0CE90700E1
:101370000CEB8302194652F80C2C0B48FFF758FE71
:1013800005B05DF804FB0948FFF752FEF8E708488E
:10139000FFF74EFE0748F7E71F690008F500002039
:1013A000E8000020906300087B690008916900084C
:1013B000A4690008C269000810B524488AB0FFF784
:1013C00037FE234B1C782046FFF74AF94FF07C513B
:1013D000FFF79AF9FFF732F802460B461D482146FF
:1013E0001D4CFFF725FE94E8070001AB83E80700DA
:1013F0001A4B1B4819780AAB03EB810353F8242CD2
:10140000FFF716FE04AB04F10C0207CA83E80700DD
:10141000144B154819780AAB03EB810353F8182CC9
:10142000FFF706FE18340AAB94E8070003E907004B
:101430000E4B0AAA1B780E4802EB830353F80C1CD0
:101440000AB0BDE81040FFF7F3BD00BFD669000841
:10145000F7000020EF69000884630008F600002010
:10146000096A0008F5000020186A0008F40000204E
:10147000286A000808B51A48FFF7DAFD1948FFF78F
:10148000D7FD1948FFF7D4FD1848FFF7D1FD1848DC
:10149000FFF7CEFD1748FFF7CBFD1748FFF7C8FD54
:1014A0001648FFF7C5FD1648FFF7C2FD1548FFF7C0
:1014B000BFFD1548FFF7BCFD1448FFF7B9FD144800
:1014C000FFF7B6FD1348FFF7B3FD1348FFF7B0FD74
:1014D0001248FFF7ADFDBDE808401148FFF7A8BD71
:1014E000396A00084D6A0008776A0008A26A000895
:1014F000D06A0008F76A0008266B0008536B0008E2
:10150000866B0008C06B0008FE6B00082A6C0008A0
:10151000536C00087D6C0008A26C0008AD6C0008DC
:10152000E06C00082DE9F84301EBD173A0EB6306F2
:10153000002EB8BF7642B0EB630F05460C46174647
:1015400046D03046FFF78CF822498146FFF7DCF899
:1015500002F0CCFA204980464846FFF7D5F801460C
:101560004046FFF785F980462846FFF779F81B4982
:10157000FFF7CAF80546601EFFF772F801462846D5
:10158000FFF776F902F07AFA4FF07C51FFF7BCF8DA
:1015900001464FF07C50FEF7ADFF4146FFF7B4F82F
:1015A000002CB8BF0334B6EBA40F02DA3946FFF7BC
:1015B000ABF80B49FFF7A8F8FFF76CFA094B984214
:1015C000B8BF1846084B9842A8BF1846BDE8F88334
:1015D0000648E5E77CD9A03FDB0F4940DB0FC94057
:1015E000FCFF7F4A0100C0FFFFFF3F00CDCCCC3E97
:1015F0002DE9F3414948FFF71BFD0DF107021E21BC
:101600004748FFF795FA9DF807104648FFF710FD89
:101610004548FFF70DFD02221E214148FFF768FAF9
:10162000044628B14148FFF703FD02B0BDE8F08150
:10163000322000F099FD3E48FFF7FAFC4FF07F574B
:10164000374EDFF8F0801A21E2B23046FFF750FA49
:101650003A4680212046FFF765FF0546C0F3074262
:101660001B213046FFF744FA1C21C5F30722304600
:10167000FFF73EFA1D213046EAB2FFF739FAE306DA
:1016800003D121464046FFF7D3FC0134802CDAD148
:101690002948FFF7CDFC0024214E284F64F07F023B
:1016A0001A21D2B23046FFF723FA3A4610212046DB
:1016B000FFF738FF0546C0F307421B213046FFF70E
:1016C00017FA1C21C5F307223046FFF711FA01343F
:1016D0001D213046EAB2FFF70BFA0E2CDED1184876
:1016E000FFF7A6FC01221E210D48FFF701FA08B101
:1016F000144898E7322000F037FD0DF107021E2153
:101700000748FFF715FA9DF807100F48FFF790FC00
:101710000E48FFF78DFC0E4885E700BF0D6D0008F1
:10172000F8000020306D00084F6D00087A6D000849
:10173000A56D0008DC6D0008F76D00086666A63F21
:10174000236E0008456E00086C6E0008896E000864
:10175000A96E000838B500222E4B2F48FFF768FC11
:1017600002221E212D48FFF7C3F9142000F0FCFCD3
:1017700000242A4D1A212846E2B2FFF7B9F9A4F154
:101780004003002BB8BF5B42402C3DD0092B3EDD0F
:101790001D2BCCBF4FF400324FF400221B21120C42
:1017A0002846FFF7A5F900221C212846FFF7A0F9DB
:1017B000013400221D212846FFF79AF9802CD9D147
:1017C000002464F07F021A21D2B21448FFF790F986
:1017D00010221B211148FFF78BF900221C210F4812
:1017E000FFF786F9013400221D210C48FFF780F92C
:1017F0000E2CE6D101221E210848FFF779F9BDE839
:1018000038400748FFF714BC4FF40012C6E74FF406
:101810008012C3E70000D03FCC6E0008F800002023
:10182000F86E00080000000008B50D48FFF700FC46
:10183000962101220B4B0C4819700C4B1A7006A311
:10184000D3E90023FFF7F4FBBDE808400848FFF7A1
:10185000EFBB00BFAFF300800000000000C05240AB
:101860002D6F0008F70000205F6F0008E8000020DF
:10187000866F000810B50E4C0E48FFF7D9FB00220A
:101880001E212046FFF734F9802207212046FFF76A
:101890002FF97821084B20461970FFF763F90748A4
:1018A000FFF7C6FBBDE810400548FFF7C1BB00BF0E
:1018B000F8000020B56F0008F7000020DA6F00087C
:1018C000FC6F000808B50648FFF7B2FB00221E2196
:1018D0000448FFF70DF9BDE808400348FFF7A8BB2F
:1018E00015700008F80000204F70000810B5464839
:1018F00002F0F4FF454B1C4613F8012B202AFAD0C6
:10190000002A7FD002222046414903F039F938B934
:10191000A01CFFF7A3FBBDE810403E4802F06EBFDD
:10192000022220463C4903F02BF918B9A01CFFF70E
:10193000CBFBF0E706222046384903F021F918B91D
:10194000A01DFFF78DFCE6E706222046344903F090
:1019500017F918B9A01DFFF7BBFCDCE707222046EA
:10196000304903F00DF918B9E01DFFF7EBFCD2E7A1
:1019700020462D49FEF7ECFB18B92046FFF738FE4C
:10198000C9E720462949FEF7E3FB18B92046FFF7CF
:10199000E1FEC0E720462649FEF7DAFB10B9FFF763
:1019A00043FFB8E720462349FEF7D2FB10B9FFF703
:1019B00061FFB0E720462049FEF7CAFB10B9FFF7E8
:1019C00081FFA8E720461D49FEF7C2FB10B9FFF7CB
:1019D000D9FBA0E720461A49FEF7BAFB10B9FFF77A
:1019E000EBFC98E720461749FEF7B2FB10B9FFF76A
:1019F00041FD90E721461448FFF71AFB1348FFF713
:101A000017FB88E710BD00BF607100088800002048
:101A10007C700008FA7000086670000869700008A1
:101A200070700008777000087F70000889700008E7
:101A3000917000089C700008A8700008B67000083B
:101A40004C6C00089D6C0008C3700008D77000083B
:101A50002DE9F047002488B000F062FBFFF7E4F9BD
:101A6000B44B07949A69062142F010029A6101264C
:101A70009A69082502F010020092009A9A694FF4C0
:101A8000804742F020029A619A69AB4802F0200236
:101A90000192019A9A69DFF8A48242F004029A61E5
:101AA0009A6902F004020292029A9A6942F00802CC
:101AB0009A619B69069603F008030393039BA04B6E
:101AC000CDE9041304A900F02BFC9B4804A9CDE93F
:101AD0000454069600F024FC22462146072000F01C
:101AE00067FB072000F094FB28462246214600F0C1
:101AF0005FFB2846934D00F08BFB934B2846C5E9CE
:101B00000038C5E90244C5E90474C5E906442C62FD
:101B100000F0EEFE08B172B6FEE74FF4E1338B4CF5
:101B20008B4AC4E90200C4E900230C232061C4E904
:101B30000530E061204601F049FD034608B172B668
:101B4000FEE78448844AC0E90473C0E90028C0E97C
:101B50000233C0E90633036200F0CAFE074608B14B
:101B600072B6FEE7FFF70FF9902229467B48FEF791
:101B7000B7FF7B4802F0B2FE20467A4C7A493246E3
:101B800001F06BFF214675482770FFF705F818B97B
:101B90002178764802F032FE0023754FDFF8D481B9
:101BA00001210320744A3B7088F80030FFF7B8F831
:101BB0000121724A0520FFF7B3F8714802F08EFE4A
:101BC000704802F08BFE704802F088FE6F4802F009
:101BD00085FE6F4802F082FE6E4802F07FFE6E487E
:101BE00002F07CFE6D4802F079FE6D4802F076FE50
:101BF0006C4802F073FE6C4D00F0B0FA2B785BB1CC
:101C00006A4B1B68C01A40F6B833984204D90023C7
:101C100067482B7002F062FEDFF8989199F8003067
:101C200063B1654802F05AFE2B78002B57D121781A
:101C30004A48FEF797FF002389F800305F4E33785B
:101C40001BB1FFF753FE002333703B78012B00F0EC
:101C5000D980022B00F0D880002B40F0D780584A62
:101C600008210320FFF75CF801210420554AFFF703
:101C700057F822780323520809210420FFF760F85F
:101C800023780C21DB074CBF4F4A504A0420FFF752
:101C900047F898F80030012B00F0BA80022B00F0D2
:101CA000B980002B40F0B880494A06210520FFF793
:101CB00037F8484A01210620FFF732F82A78012A2E
:101CC000D3B200F0AB80022B00F0AA80002B40F0D2
:101CD000A980414A07210620FFF722F88CE72B78DC
:101CE000012B5FFA83FA79D13E78012E09D0022EBA
:101CF00014D0002E9FD18C2251461848FEF7F8FED2
:101D000099E7882208211548FEF7F2FE8122314624
:101D10001248FEF7EDFE32220B21EEE78822082161
:101D20000E48FEF7E5FE812251460C48FEF7E0FE24
:101D30004222F1E70010024000080140A0860100A5
:101D4000000021109C0100200054004000010020F0
:101D5000003801404801002000580040F8000020F1
:101D6000FD700008F7000020A80000201471000892
:101D7000F6000020F5000020347100083B710008D7
:101D8000407100086271000877710008A2710008B4
:101D9000CE710008FD710008257200084C72000821
:101DA000777200089D720008F4000020F000002007
:101DB000C0720008E8000020DC72000884000020E7
:101DC000F57200081B730008247300082A730008CA
:101DD000307300084E730008557300082B78022BEF
:101DE0007FF429AF98F80030012B07D0022B07D0E1
:101DF000002B7FF420AF802207217EE79022FBE7B3
:101E0000A022F9E7084A2BE7084A29E7084A27E70A
:101E1000084A4AE7084A48E7054A46E7074A59E7B1
:101E2000074A57E7074A55E7FF7200080973000899
:101E3000137300083A7300084473000860730008C5
:101E40006B730008777300080E4B82B09A6942F0FA
:101E500001029A619A6902F001020092009ADA691D
:101E600042F08052DA61DB69074A03F08053019344
:101E7000019B536823F0E06343F08063536002B03A
:101E8000704700BF0010024000000140102210B552
:101E9000044688B00DEB0200002102F069FE2368C1
:101EA000214A93421ED1214CC021A369204843F00E
:101EB0000803A361A36903F008030093009B1223A6
:101EC000CDE90413032304A9079300F029FAE36979
:101ED00043F40013E361E36903F400130193019BEE
:101EE00008B010BD134A9342FAD1104C4FF440622F
:101EF000A3690F4843F00803A361A36904A903F091
:101F000008030293029B1223CDE9042303230793C2
:101F100000F006FAE36943F48003E361E36903F444
:101F200080030393039BDBE7005400400010024052
:101F3000000C01400058004010B5044686B0102245
:101F4000002102A802F014FE22681B4B9A4230D1F5
:101F500003F558439A69194842F480429A619A6994
:101F600002A902F480420092009A9A69002442F089
:101F700004029A619B694FF4007203F00403019319
:101F8000019B0223CDE902230323059300F0C8F946
:101F90004FF48063094802A9CDE90234049400F0AB
:101FA000BFF925202246214600F002F9252000F045
:101FB0002FF906B010BD00BF0038014000080140F5
:101FC000FEE7FEE7FEE7FEE7FEE770477047704773
:101FD00000F0B8B8022000F07DBA042000F07ABA10
:101FE000082000F077BA102000F074BA014801F020
:101FF000D1BB00BF0001002070B50D4614460E464F
:10200000731B9C4201DC204670BDAFF3008006F8D4
:10201000010BF5E770B50D4614460E46731B9C4246
:1020200001DC204670BD16F8010BFEF7EDFEF5E76A
:102030004FF0FF3070474FF4005300204B60704763
:1020400001207047002070470B4A0346116810B505
:1020500009B90A491160106809490A4C0344091B6F
:102060008B4206D902F0E4FD0C2303604FF0FF30F1
:1020700010BD1360FCE700BFF00100204803002002
:10208000005000200004000070470000FFF7FCFF34
:102090000B480C490C4A002302E0D458C4500433C6
:1020A000C4188C42F9D3094A094C002301E013609B
:1020B0000432A242FBD302F0C1FDFFF7C9FC704716
:1020C0000000002068000020147F00086800002045
:1020D00044030020FEE7000038B50E4B05461A7891
:1020E0004FF47A73B3FBF2F30B4A1068B0FBF3F0D2
:1020F00000F09CF8044658B90F2D09D8024629462D
:102100004FF0FF3000F054F82046044B1D6038BDFE
:102110000120FCE70400002000000020080000204F
:10212000074A08B51368032043F01003136000F05A
:102130002DF80F20FFF7D0FFFFF786FE002008BD27
:1021400000200240034A044B11681B780B441360C3
:10215000704700BFF401002004000020014B186804
:10216000704700BFF401002038B50446FFF7F6FFC2
:102170000546631C1EBF044B1B78E418FFF7EEFFF7
:10218000431BA342FAD338BD0400002007490302D1
:10219000CA6803F4E06322F4E0621204120C1343F1
:1021A00043F0BF6343F40033CB60704700ED00E0C1
:1021B000154B30B5DC68C4F30224C4F10703251DB8
:1021C000042B28BF0423062D4FF0FF3594BF0024B5
:1021D000033C05FA03F321EA0303A54022EA0502C2
:1021E000A340002843EA0203ACBF00F16040074A65
:1021F0004FEA0313DBB2ABBF00F5614000F00F0004
:1022000080F80033135430BD00ED00E014ED00E021
:10221000002807DB01234109034A00F01F00834027
:1022200042F82130704700BF00E100E00138B0F112
:10223000807F0BD24FF0E023F021054A586182F8ED
:1022400023100020072298611A617047012070470F
:1022500000ED00E090F821200346022A06D0042277
:1022600082630120002283F8202070470268C06B3F
:10227000116821F00E011160116821F00101116057
:1022800001211A6C01FA02F24260002083F8211049
:10229000E8E7000008B590F82130022B03D00423B2
:1022A0008363012008BD03681A6822F00E021A60D9
:1022B0001A6822F001021A60174A93421FD01432A2
:1022C00093421ED0143293421DD0143293421DD03B
:1022D000143293421DD01432934214BF4FF08073D6
:1022E0004FF480130D4A5360012380F821300023FE
:1022F00080F82030436B03B198470020D2E70123D8
:10230000F0E71023EEE74FF48073EBE74FF48053D0
:10231000E8E74FF48033E5E70800024000000240A0
:102320002DE9F74F00244FF00F0E2646DFF884C149
:10233000614B00F104080A6832FA06F502D103B0D5
:10234000BDE8F08F012505FA06F702EA070537EA2E
:10235000020276D14A68032A07D8013A022A00F21B
:102360008380DFE802F091969C00122A00F09480AE
:1023700069D8112A00F08A80FF2D94BF8146C1469A
:102380004FEA8602D9F8007088BF203A0EFA02FAA6
:1023900027EA0A0704FA02F21743C9F80070D1F8D5
:1023A000049019F0805F4CD0DCF8182026F0030769
:1023B00042F00102CCF81820DCF8182007F1804721
:1023C00002F00102019207F5803706F0030A019A34
:1023D0004FEA8A0ABA680EFA0AFB22EA0B0B374A5E
:1023E000904260D002F5806290425ED002F5806239
:1023F00090425CD002F58062904214BF0422032216
:1024000002FA0AF242EA0B02BA609A6819F4801FD3
:1024100014BF2A43AA439A60DA6819F4001F14BF54
:102420002A43AA43DA605A6819F4003F14BF2A43CA
:10243000AA435A601A6819F4803F14BF2A43AA437A
:102440001A60013677E7DFF878904A450CD014D847
:10245000A9F580194A4507D009F570294A4503D0E6
:10246000A9F580194A4587D18A68D2B1012A4FF06F
:1024700008040CBF076147617EE7DFF848904A45D2
:10248000F2D009F58039EDE7CC6875E7CC68043403
:1024900072E7CC6808346FE7CC680C346CE7002432
:1024A0006AE7042468E70022AAE70122A8E70222DB
:1024B000A6E700BF001002400004014000080140F0
:1024C00000002210000031108368194214BF01205F
:1024D00000207047044A08B55169014202D050619A
:1024E000FEF7D2FC08BD00BF0004014001680022D5
:1024F0004B6913F4806310D06FF480634B61202329
:10250000026380F83D3080F83E20036C80F83C2068
:1025100043F00403036401207047184670472DE917
:10252000F84606460F4691461D464FEA114A336863
:10253000BAF1010F0CBF5C699C6927EA0404A4B2DC
:10254000B4FA84F46409A14501D0002025E06A1C96
:10255000EED0FFF703FE089BC01AA84201D8002D59
:10256000E5D13368BAF1010F0CBF5B699B6927EABB
:1025700003039BB2B3FA83F35B099945D7D10023D8
:1025800020220120336386F83D2086F83E30326CED
:1025900086F83C3042F020023264BDE8F8862DE92E
:1025A000F04104460F46164698462568686927EAB2
:1025B000000080B2C0B16B695A0517D52B68202284
:1025C00043F400732B606FF480636B61002323631B
:1025D00084F83D2084F83E30236C43F004032364E8
:1025E0000023012084F83C30BDE8F081731CDDD06D
:1025F000FFF7B4FDA0EB0800B04201D8002ED4D103
:1026000023685A6927EA020292B2002ACDD0002339
:102610002022236384F83D2084F83E30236C13434A
:10262000DDE770B504460D46164623685B691B0658
:1026300001D500201EE02046FFF758FFC8B96A1CEC
:10264000F3D0FFF78BFD801BA84201D8002DECD101
:1026500023685B6913F08003E7D12022236384F8A9
:102660003D2084F83E30226C84F83C3042F0200259
:102670002264012070BD00002DE9F0431546026878
:102680009946136885B043F480731360DDE90C78D4
:102690000E463B4600224FF00111CDF80080044663
:1026A000FFF73DFF236838B11B68DB0502D54FF407
:1026B00000732364032620E006F0FE061E613A46FE
:1026C000434620461849FFF76AFFA8B923680390DC
:1026D0005A69394603929B69424603932046039BFD
:1026E000FFF79FFF064660B1236C042B01BF2268F1
:1026F000136843F4007313600126304605B0BDE84B
:10270000F083B9F1010F236802D1EDB21D61F4E746
:102710002A0A1A61394642462046FFF782FF0028FE
:10272000E2D12368F1E700BF020001002DE9FF4775
:102730009A46DDE90C78036815461A680E4642F49D
:1027400080621A601A684FF0011142F480721A60B8
:102750003B460022CDF800800446FFF7E0FE2368E8
:1027600048B11B68DB0548BF4FF400734FF003000E
:1027700048BF236421E05FFA86F906F0FE061E6179
:102780003A46434620462A49FFF709FFA0B9236885
:1027900003905A69394603929B6942460393204647
:1027A000039BFFF73EFF58B1236C042B01BF226847
:1027B000136843F400731360012004B0BDE8F08790
:1027C000BAF1010F23681AD1EDB2424639462046CC
:1027D0001D61FFF726FF02460028E5D1216820464B
:1027E0000B6843F480730B603B464FF00111CDF84A
:1027F0000080FFF794FE226860B11368B2E72A0AEE
:102800001A61394642462046FFF70BFF0028CBD11C
:102810002368D9E749F001031361204643463A464D
:102820000349FFF7BCFE003818BF0120C5E700BF11
:102830000200010070B504460D46164623685B6928
:102840005B0701D500201EE02046FFF74FFEC8B908
:102850006A1CF3D0FFF782FC801BA84201D8002D30
:10286000ECD123685B6913F00403E7D120222363D2
:1028700084F83D2084F83E30226C84F83C3042F0ED
:1028800020022264012070BD70B504460D46164634
:1028900021684B6913F0400301D0002011E04A6920
:1028A000D2060FD56FF010024A612022236384F80C
:1028B0003D2084F83E30236C23640023012084F8FB
:1028C0003C3070BDFFF74AFC801BA84201D8002DA8
:1028D000DED123685B6913F04003D9D12022236342
:1028E00084F83D2084F83E30236C1343E4E7000075
:1028F00070B5044608B9012070BD90F83D3003F072
:10290000FF021BB980F83C20FFF7C0FA242384F8AB
:102910003D3023681A6822F001021A601A6842F4F6
:1029200000421A601A6822F400421A6000F094FD16
:102930003F4B65689D4294BF3E4B3F4B98428CBFD6
:1029400000230123002BD6D1394E3C4BB542B0FBBE
:10295000F3F388BF4FF496762268516821F03F0167
:1029600041EA030182BF73434FF47A76B3FBF6F377
:102970005160116A013321F03F010B431362D169A9
:10298000431E2B4821F44F41854221F0FF0132D8EC
:102990006D00B3FBF5F340F6FC700133034242D007
:1029A000C3F30B031943D1611168D4E9073021F057
:1029B000C00103430B4313609168D4E9030321F47E
:1029C0000341034321F0FF010B439360D168D4E935
:1029D000053021F0FF0103430B43D360136800204F
:1029E00043F0010313602023206484F83D3020630A
:1029F00084F83E0080E7A06850B905EB4505B3FBBD
:102A0000F5F30133C3F30B037BB143F40043C9E790
:102A100019206843B3FBF0F30133C3F30B0323B175
:102A200043F44043BEE70423BCE70123BAE700BFF9
:102A3000A08601007F841E00FF083D0040420F0079
:102A40002DE9F043044685B098460D4691460C9F0B
:102A5000FFF784FB94F83D300646202B04D0022576
:102A6000284605B0BDE8F0830090192301222046D6
:102A70005C49FFF754FD0028F1D194F83C30012B5C
:102A8000EDD00123216884F83C300B68DA075EBF83
:102A90000B6843F001030B600B6823F400630B60C9
:102AA000212384F83D30102384F83E300023236432
:102AB000A4F82A80638DC4F8249023854A4BE362EE
:102AC000E36A082B04D0012B02D013F5803F04D118
:102AD0000B6843F480730B6002E0236B122BF7D07A
:102AE00000223B464FF0011120460096FFF717FDEC
:102AF000226840B11368DB0501D40125B0E74FF42B
:102B000000732364F9E72369B3F5804F21D105F001
:102B1000FE05156133463A4620463449FFF73FFD2E
:102B200005460028E9D1236803905A6903929B69FE
:102B30000393039B238DF3B921680A6842F4007262
:102B40000A60202284F83C3084F83D2084F83E302E
:102B500086E7EB1103F0060343F0F0031361204610
:102B600033463A462249FFF71AFD0028C5D12368AB
:102B7000EDB21D61CEE7324639462046FFF751FDE2
:102B800040B1236C042BB8D12268136843F400735E
:102B90001360B2E7636A20681A4612F8011B0161EC
:102BA0006262628D013A92B26285228DD0F814C0C1
:102BB000511E89B21CF0040F21850AD049B1597801
:102BC000023301616362638D023A013B9BB263850C
:102BD0002285324639462046FFF72CFE0028A9D030
:102BE000CFE700BF020010000000FFFF020001005D
:102BF000080001002DE9F743044699460F46904628
:102C00000C9EFFF7ABFA94F83D300546202B03D01D
:102C1000022003B0BDE8F083009019230122204672
:102C20003A49FFF77CFC0028F2D194F83C30012BA4
:102C3000EED00123206884F83C3003684246D9076F
:102C400058BF036839465CBF43F001030360036863
:102C500023F400630360212384F83D30402384F88B
:102C60003E30002323640A9B20466362BDF82C306B
:102C70006385638D2385264BE3624B46CDE9006572
:102C8000FFF7FAFC00282AD00120C2E7FFF7C9FCB1
:102C900040B1236C042B01BF2268136843F4007316
:102CA0001360F1E7636A27681A4612F8011B39615D
:102CB0006262628D218D013A92B262857A69481E04
:102CC00080B2520720850AD548B15A7802333A615A
:102CD0006362638D0239013B9BB221856385238D3D
:102CE0002A4631462046002BD0D1FFF7A3FD00280D
:102CF000CFD12268136843F400731360202384F853
:102D00003C0084F83D3084F83E0082E70200100069
:102D10000000FFFF2DE9F04399460023044689B0E7
:102D200003930D469046129FFFF718FA94F83D3032
:102D30000646202B04D00225284609B0BDE8F083C2
:102D400000901923012220469049FFF7E8FB002854
:102D5000F1D194F83C30012BEDD00123206884F8A8
:102D60003C3003682946DB0758BF036842465CBF16
:102D700043F001030360036823F40063036022232C
:102D800084F83D30402384F83E3000232364109BB8
:102D900020466362BDF844306385638D23857C4B98
:102DA000E3624B46CDE90076FFF7C0FC05460028FC
:102DB00040F0BA80228D2368C2B904905A69049207
:102DC0009A690492049A1A6842F400721A60DFF851
:102DD000C481DFF8C491238D002B37D1202284F8E1
:102DE0003C3084F83D2084F83E30A5E7012A11D11B
:102DF0001A6822F480621A6072B6236805905A69D4
:102E000005929A690592059A1A6842F400721A604E
:102E100062B6DCE7022A1A680ED142F400621A6038
:102E200072B6236806905A6906929A690692069AC3
:102E30001A6822F48062EAE742F480621A6007901E
:102E40005A6907929B690793079BC0E7032B78D8C1
:102E5000012B15D1324639462046FFF715FD0028D3
:102E600062D123681A69636A1A70636A0133636204
:102E7000238D013B2385638D013B9BB26385AAE7CC
:102E8000022B4FF000023B4641462046009618D1E7
:102E9000FFF745FB002847D172B623681A6842F451
:102EA00000721A601A69636A1A70636A0133636296
:102EB000238D013B2385638D013B9BB2638562B605
:102EC000CFE7FFF72CFB00282ED12268136823F4EC
:102ED0008063136072B646F2A81123681A69636AA8
:102EE0001A70626A531C6362238D013B2385638DD4
:102EF000013B9BB26385D9F80030B3FBF1F323218A
:102F00004B430393039B013B0393039B73B9202221
:102F1000236384F83D2084F83E30226C42F0200286
:102F2000226462B684F83C30012505E723685969BC
:102F30004907E7D5196841F4007119601B6953709E
:102F4000B3E7324639462046FFF79EFC0028EBD116
:102F500023681A69636A1A70628D616A013A92B2D3
:102F60004B1C628522686362238D5069013B9BB2D2
:102F7000400723857FF52FAF032B02BF136823F48F
:102F80008063136013694B706FE700BF020010008D
:102F90000000FFFF04000100000000202DE9F341C4
:102FA000054638B30368DB0710D42B689F075ED44F
:102FB0002B68190700F195802B685A0700F1C18032
:102FC000EB69002B40F02C81002029E0904C6368D5
:102FD00003F00C03042B07D0636803F00C03082BE9
:102FE0000AD16368DE0307D523689C03DDD56B68CF
:102FF000002BDAD1012013E06B68B3F5803F12D1CA
:10300000236843F480332360FFF7A8F8064623685B
:103010009803CAD4FFF7A2F8801B6428F7D90320CD
:1030200002B0BDE8F0819BB9236823F480332360AC
:10303000236823F480232360FFF790F80646236873
:103040009903B2D5FFF78AF8801B6428F7D9E6E721
:10305000B3F5A02F236803D143F480232360CFE787
:1030600023F480332360236823F48023CBE7684C68
:10307000636813F00C0F07D0636803F00C03082B90
:1030800010D16368DA030DD423689B0702D52B693E
:10309000012BAFD123686A6923F0F80343EAC20326
:1030A000236085E72A695B4B6AB101221A60FFF74A
:1030B00055F8064623689F07ECD4FFF74FF8801BAE
:1030C0000228F7D9ABE71A60FFF748F806462368ED
:1030D00098077FF56DAFFFF741F8801B0228F6D9FE
:1030E0009DE7AA694A4E4B4BE2B10122C3F8802406
:1030F000FFF734F80446736A9B070DD54FF4FA5274
:10310000454B1B68B3FBF2F3019300BF019B5A1EB2
:103110000192002BF9D14FE7FFF720F8001B02289E
:10312000E9D97CE7C3F88024FFF718F80446736AEE
:103130009F077FF541AFFFF711F8001B0228F6D972
:103140006DE7334CE369D80024D40127E36943F0E9
:103150008053E361E36903F080530093009B2F4E9B
:103160003368D90518D5EB68012B26D1236A43F0C3
:1031700001032362FEF7F2FF41F288380646236A14
:103180009B073FD5002F3FF41BAFE36923F080532B
:10319000E36115E70027E2E7336843F480733360A7
:1031A000FEF7DCFF80463368DA05DCD4FEF7D6FF95
:1031B000A0EB08006428F6D931E7ABB9236A41F2E5
:1031C000883823F001032362236A23F00403236277
:1031D000FEF7C4FF0646236A9807D3D5FEF7BEFF65
:1031E000801B4045F7D91AE7052B236A03D143F02A
:1031F00004032362BAE723F001032362236A23F066
:103200000403B6E7FEF7AAFF801B4045B7D906E7DF
:103210000010024000004242000000200070004008
:103220002A4C626802F00C02082A3ED00022022BCF
:10323000274B1A662CD1FEF791FF064623689901A9
:1032400020D42B6AB3F5803F05D16268A96822F4C7
:1032500000320A436260696A62680B4322F47412A6
:103260001343012263601A4B1A66FEF777FF054687
:1032700023689A013FF5A8AEFEF770FF401B0228B5
:10328000F6D9CCE6FEF76AFF801B0228D6D9C6E63F
:10329000FEF764FF054623689B017FF595AEFEF7B8
:1032A0005DFF401B0228F6D9B9E6012B3FF4A2AE20
:1032B00060682B6A00F480329A427FF49BAE6B6A9E
:1032C00000F47010C01A18BF0120A9E600100240D7
:1032D000000042420D4A536803F00C01082912D144
:1032E0000B48C3F38341DB03405C09D55368094AAB
:1032F000C3F340435043084AD35CB0FBF3F070473C
:10330000064B584370470348704700BF0010024007
:103310001E7A000800127A001C7A000800093D009D
:103320002DE9F0410D46044610B90120BDE8F081B9
:10333000444A136803F007038B4228D321688E07A1
:1033400030D4CA0743D43F4A136803F00703AB42A3
:1033500065D822683C4D12F0040F6CD1130706D5D6
:103360006B68226923F4605343EAC2036B60FFF782
:10337000B1FF6B68354AC3F30313D35CD840344BB9
:103380001860344B1868FEF7A7FE0020CEE71368DC
:1033900023F007030B431360136803F007038B420A
:1033A000C3D1CBE7284B11F0040F1EBF5A6842F47B
:1033B000E0625A60080742BF5A6842F460525A609D
:1033C0005A68A06822F0F00202435A60B9E76268C6
:1033D0001D4E012A33681AD113F4003FA5D073683B
:1033E00041F2883823F0030313437360FEF7B6FEFF
:1033F00007467368626803F00C03B3EB820FA2D038
:10340000FEF7ACFEC01B4045F3D903208EE7022A2D
:1034100002D113F0007FE1E713F0020FDEE713683B
:1034200023F007032B431360136803F00703AB4239
:103430007FF47BAF8DE76B68E16823F4E0630B43B7
:103440006B608BE700200240001002400C7A0008FD
:103450000000002008000020044B054A5B68C3F30D
:103460000223D35C034A1068D84070470010024022
:10347000047A000800000020044B054A5B68C3F38F
:10348000C223D35C034A1068D84070470010024042
:10349000047A000800000020026802F10C0353E8DF
:1034A000003F23F490730C3242E800310268002997
:1034B000F2D102F1140353E8003F23F0010302F1BB
:1034C000140C4CE800310029F3D1036B012B0BD114
:1034D00002F10C0353E8003F23F0100302F10C0C3F
:1034E0004CE800310029F3D1202380F8423000233A
:1034F0000363704710B504460368C1681A6922F473
:1035000040520A431A6182680069D96802436069BF
:1035100021F4B05121F00C0102430A43DA605A69E8
:10352000A16922F440720A435A610E4A934215D1AE
:10353000FFF7A2FF19234343626820689200B3FBA0
:10354000F2F36422B3FBF2F102FB11331B013233BD
:10355000B3FBF2F303EB0113836010BDFFF77CFFB5
:10356000E8E700BF00380140F7B505460C461746AE
:103570001E462A68136834EA030301D1002021E0C3
:10358000701CF7D0FEF7EAFDC01B86421CD3DEB1EB
:103590002B68DA685107ECD5802CEAD0402CE8D0B3
:1035A0001A681207E5D5002401941A68284601928A
:1035B0005B680193019BFFF76FFF082301206B6499
:1035C00085F8404003B0F0BD0320FBE710B504468A
:1035D00048B390F8413003F0FF021BB980F8402057
:1035E000FEF7AAFC2423226884F84130D3682046E1
:1035F00023F40053D360FFF77DFF236800201A698E
:1036000022F490421A615A6922F02A025A61DA6859
:1036100042F40052DA602023606484F8413084F878
:103620004230606310BD0120FCE72DE9F843984665
:1036300090F841300446202B0E4617463FD1002912
:103640003FD0002A3DD021230025456480F8413039
:10365000FEF784FDA3688146B3F5805FA784E78405
:1036600003D123690BB935461E46E38C9BB253B98F
:1036700043464A4640212046FFF776FF202350B9B3
:1036800084F841300AE043464A4680212046FFF74D
:103690006BFF28B12023032084F84130BDE8F88374
:1036A00022684EB935F8023BC3F308035360E18C3E
:1036B000013989B2E184D8E716F8013BF6E7022028
:1036C000ECE70120EAE77047704708B50023406A3D
:1036D000C385C384FFF7F8FF08BD704790F84230F8
:1036E00007B5222B42D181680268B1F5805F836AF9
:1036F0003FD1016900293FD15268C2F3080223F883
:10370000022B8362C38D013B9BB2C385002B2DD15D
:103710000268D16821F02001D160D16821F4807164
:10372000D160516921F001015161202280F84220CD
:103730004363026B012A026828D1036302F10C0380
:1037400053E8003F23F0100302F10C0C4CE8003169
:103750000029F3D11368DB0605D5019113680193A5
:1037600053680193019B818DFFF7B7FF03B05DF8AC
:1037700004FB39B9016929B95268D2B21A70836A57
:103780000133BEE7526802F07F02F7E7FDF710FC55
:10379000ECE70000036873B51A6804461607D96899
:1037A0005D6908D1960668D58D0666D502B0BDE87C
:1037B0007040FFF793BF05F0010001F490750543D9
:1037C0005BD0D60705D5CD0542BF636C43F001033E
:1037D0006364530704D518B1636C43F00203636458
:1037E000960704D518B1636C43F0040363641507AE
:1037F00007D501F0200303431EBF636C43F00803A9
:103800006364636C002B32D0920604D58B0602D51C
:103810002046FFF763FF266820467369626C03F059
:10382000400302F0080253EA020522D0FFF734FEFB
:1038300073695E0618D5226802F1140353E8003F4D
:1038400023F04003143242E800310029F3D1E06B49
:1038500050B1744B4363FEF71DFD40B1E06B436B09
:1038600002B0BDE8704018472046FFF72DFF02B0B8
:1038700070BDFFF729FF6564F9E7206B012840F070
:103880009480D50640F19180C80640F18E800022D8
:1038900001921A6801925A680192019A5A69520675
:1038A0004DD5E16B0A68526892B2002ADFD0A08D34
:1038B0009042DCD9E2858A69202A36D003F10C02D5
:1038C00052E8002F22F4807203F10C0040E800213E
:1038D0000029F3D103F1140252E8002F22F0010273
:1038E00003F1140040E800210029F3D103F1140290
:1038F00052E8002F22F0400203F1140040E80021BA
:103900000029F3D1202284F84220216303F10C0224
:1039100052E8002F22F0100203F10C0040E80021D1
:103920000029F3D1E06BFEF795FC02236363E38D7E
:10393000A18DC91A89B22046FFF7CFFE97E7E28D25
:10394000E08DA18D80B292B2002890D0891A89B200
:1039500000298CD003F10C0252E8002F22F490725F
:1039600003F10C0545E800200028F3D103F114020F
:1039700052E8002F22F0010203F1140545E800206F
:103980000028F3D1202284F84220206303F10C02A6
:1039900052E8002F22F0100203F10C0545E8002048
:1039A0000028F3D102236363C5E7160628D50D0668
:1039B00026D594F84120212A7FF459AFA168226AC4
:1039C000B1F5805F17D12169A9B932F8021BC1F3A3
:1039D000080159602262E28C013A92B2E284002A24
:1039E0007FF445AFDA6822F08002DA60DA6842F0EC
:1039F0004002DA603BE7511C216212785A60EAE724
:103A000050067FF534AF4A067FF531AFDA682046BD
:103A100022F04002DA60202384F84130FFF753FEA1
:103A200025E700BFCB3600080023C285436422236C
:103A30008285026980F84230816203681AB1DA68CF
:103A400042F48072DA605A69002042F001025A6141
:103A5000DA6842F02002DA60704770B490F8426091
:103A6000202E06D141B13AB10024046370BCFFF7A7
:103A7000DBBF022070BC70470120FBE707B51A4A84
:103A800020F000439342014605D8002103B05DF8C1
:103A900004EB00F065B8B3F1FF4F04D3FCF72AFD47
:103AA00003B05DF804FB694600F050F900F0030232
:103AB000012A07D0022A0CD082B90199009800F09F
:103AC0004FF8EDE70199009800F0CAF800F10040C6
:103AD000E6E70199009800F043F8F7E70122019921
:103AE000009800F0BDF8DBE7D80F493F07B51B4A47
:103AF00020F000439342014606D80022002103B083
:103B00005DF804EB00F0ACB8B3F1FF4F04D3FCF761
:103B1000F1FC03B05DF804FB694600F017F900F012
:103B20000300012808D002280BD090B90122019986
:103B3000009800F095F8ECE70199009800F010F873
:103B4000E7E701220199009800F08AF800F10040AF
:103B5000DFE70199009800F003F8F7E7D80F493F35
:103B60002DE9F04120F00045B5F1485F0646884652
:103B700003D2FCF78FFF00285CD031463046FCF7BB
:103B8000C3FD4FF07C510446FCF7BEFD2B490746B0
:103B90002046FCF7B9FD2A49FCF7AEFC2146FCF7AC
:103BA000B3FD2849FCF7A6FC2146FCF7ADFD2649EC
:103BB000FCF7A2FC2146FCF7A7FD2449FCF79AFC80
:103BC0002146FCF7A1FD2249FCF796FC2146FCF7B3
:103BD0009BFD2146FCF798FD414604463046FCF724
:103BE00093FD01462046FCF785FC1A4B04469D4296
:103BF0000AD801463846FCF77DFC01464FF07E505E
:103C0000FCF778FCBDE8F081134B4FF07E509D42ED
:103C10008CBF124D05F17F452946FCF76BFC294608
:103C200006463846FCF766FC2146FCF763FC014675
:103C30003046E5E74FF07E50E4E700BF4ED747AD92
:103C4000F6740F317CF29334010DD037610BB63A24
:103C5000ABAA2A3D9999993E0000483F0000903E4A
:103C60002DE9F84320F00043B3F1485F04460F46C6
:103C7000914603D2FCF70EFF002835D0214620469E
:103C8000FCF742FD054601462046FCF73DFD29496B
:103C900006462846FCF738FD2749FCF72BFC294649
:103CA000FCF732FD2549FCF727FC2946FCF72CFDE3
:103CB0002349FCF71FFC2946FCF726FD2149FCF7A8
:103CC0001BFC8046B9F1000F11D101462846FCF7D4
:103CD0001BFD1D49FCF70EFC3146FCF715FD0146A6
:103CE0002046FCF709FC04462046BDE8F8834FF067
:103CF0007C513846FCF708FD414681463046FCF7CA
:103D000003FD01464846FCF7F5FB2946FCF7FCFCA1
:103D10003946FCF7EFFB0C4905463046FCF7F4FC4E
:103D200001462846FCF7E8FB01462046FCF7E2FB8B
:103D3000D9E700BFD3C92E2F342FD7321BEF383627
:103D4000010D50398988083CABAA2A3E2DE9F04F75
:103D5000A44A20F0004890450C46824687B004D81B
:103D6000002308604B6000251DE09F4A90454FD816
:103D700020F0004500289D499D4F25F00F0524DDCA
:103D8000FCF7B8FBBD42064611D09A49FCF7B2FBDE
:103D9000014605463046FCF7ADFB9649FCF7AAFB09
:103DA000256001256060284607B0BDE8F08F924984
:103DB000FCF7A0FB91490646FCF79CFB0146054633
:103DC0003046FCF797FB8D49E8E7FCF795FBBD42D1
:103DD00006460FD08749FCF78FFB01460546304663
:103DE000FCF788FB8349FCF787FB256060604FF098
:103DF000FF35D8E78049FCF77FFB80490646FCF792
:103E00007BFB014605463046FCF774FB7B49EAE73D
:103E10007B4A904500F2958000F0FEF8794906460D
:103E2000FCF772FC4FF07C51FCF766FBFCF732FEAE
:103E30000546FCF715FC6D498146FCF765FC01461B
:103E40003046FCF757FB6B4907464846FCF75CFCDD
:103E50001F2D06460EDC6C4A691E52F821202AF0FE
:103E6000004323F0FF03934204D031463846FCF769
:103E700041FB0BE031463846FCF73CFBC0F3C7532F
:103E8000C3EBD853082B4FEAE85B01DC206026E047
:103E900059494846FCF738FC064601463846FCF7C7
:103EA00029FB014680463846FCF724FB3146FCF7E7
:103EB00021FB064651494846FCF726FC3146FCF7F3
:103EC00019FB014606464046FCF714FBC0F3C753F6
:103ED000ABEB030BBBF1190F18DC47462060D4F89D
:103EE000008038464146FCF705FB3146FCF702FBF3
:103EF000BAF1000F6060BFF656AF08F1004800F15C
:103F00000040C4F8008060606D424CE73F4948467D
:103F1000FCF7FAFB064601464046FCF7EBFA014681
:103F200007464046FCF7E6FA3146FCF7E3FA064658
:103F300037494846FCF7E8FB3146FCF7DBFA064612
:103F400093E7B8F1FF4F05D30146FCF7D3FA606061
:103F5000206008E74FEAE856863EA8EBC658404680
:103F6000FCF798FDFCF77CFB014603904046FCF70C
:103F7000C1FA4FF08741FCF7C7FB0746FCF78AFD03
:103F8000FCF76EFB0146049005463846FCF7B2FA92
:103F90004FF08741FCF7B8FB00210590FCF748FD86
:103FA000F0B100212846FCF743FD002814BF01238F
:103FB0000223184A21460192022203A800923246A7
:103FC00000F02EF8BAF1000F0546BFF6ECAE2368FC
:103FD00003F100432360636803F10043636093E7E8
:103FE0000323E6E7D80F493FE3CB1640800FC93FD4
:103FF000D00FC93F434435370044353708A3852ED9
:10400000800F494384F9223F307A000800A3852EAF
:1040100032318D24B07A000820F000407047000053
:104020002DE9F04FDBB002920493649AAC4B0590FB
:1040300053F8223000910193049B013B0393029BB0
:104040001A1DC0F29980DC1E48BF1C1DE41000251B
:104050004FF0000B671CFB000693029B039AA3EB37
:10406000C707019BA4EB020803EB0209659B1EAE88
:1040700003EB880A4D4540F38180049A1EAB03EBA5
:1040800082054FF0000900230DF58C7A019A9145C5
:1040900040F39A8013460AAA02EB83030893659BB8
:1040A00003EB8403019C07930DF12808464625463F
:1040B0004FF087495AAB03EB840353F850BC0DF51E
:1040C0008C7A002D00F385803946584600F046FA78
:1040D0004FF078510546FCF717FB00F08BFA4FF0D4
:1040E0008241FCF711FB01462846FCF703FA05461E
:1040F000FCF7D0FC0646FCF7B3FA01462846FCF76D
:10410000F9F9002F814640F38180621E0AAB53F813
:104110002250C7F1080145FA01F31E448B40ED1A05
:104120000AAB43F82250C7F107031D41002D7ADD89
:10413000002292460136944200F3AA80002F05DD4A
:10414000012F00F0B680022F00F0BD80022D6AD151
:1041500049464FF07E50FCF7CDF98146BAF1000F89
:1041600061D039464FF07E5000F0F8F901464846DC
:10417000FCF7C0F9814656E0002468E718EB050F0C
:1041800007D45AF82500FCF76BFA46F8040B013502
:1041900070E75846F9E70793059B5BF8041D53F851
:1041A0002800FCF7B1FA01463046FCF7A5F90646AF
:1041B000079B08F10108039A9045ECDD4AF8046B6F
:1041C00009F10109043561E7AB461E464FF00008CE
:1041D000F1E74FF06E515846FCF796FAFCF75AFC9F
:1041E000FCF73EFA49460990FCF78EFA014658461C
:1041F000FCF780F9FCF74EFC013D46F8040B5AF839
:1042000025100998FCF778F983465AE705D1631E13
:104210000AAA52F82350ED1188E74FF07C51FCF7C1
:1042200025FC054690BB00214846FCF701FC002810
:1042300000F090800022631E01998B424ADA002A26
:1042400076D0013C0AAB53F82430083F002BF8D05D
:1042500039464FF07E5000F081F9A24607464FF0F4
:104260006E590DF58C78BAF1000F80F2A1802746C7
:104270000022002FC0F2CB8046A990464FF0000AE2
:10428000184B01EB870BA4EB0709B4E002254FE7BD
:1042900058F8043BBAF1000F08D123B1C3F580737D
:1042A00048F8043C01239A46013244E7C3F1FF0376
:1042B000F6E7621E0AAB53F8223003F07F030AA927
:1042C00041F8223042E7621E0AAB53F8223003F075
:1042D0003F03F4E70AA951F82310013B0A43ABE777
:1042E000F47D0008C87D0008013352F8041D002940
:1042F000FAD0049A1EA9A218661C01EB82051C4480
:104300000DF58C79B442FFF6CFAE079BAB4653F860
:104310002600FCF7A5F94FF0000A4FF000082860CE
:10432000039B9A4507DD49F8268004350136E9E705
:104330000123089AD9E7059B5BF8040953F82A1072
:10434000FCF7E2F901464046FCF7D6F80AF1010A0B
:104350008046E5E7069B029A4846991A00F0FEF867
:104360004FF087418046FCF781FBF8B14FF06E516A
:104370004046FCF7C9F9FCF78DFBFCF771F94FF0EB
:1043800087418146FCF7C0F901464046FCF7B2F888
:10439000FCF780FB0AAB43F8240048460134083799
:1043A000FCF778FB0AAB43F8240051E74046F7E7F7
:1043B0000AAB53F82A00FCF753F93946FCF7A4F985
:1043C000494648F82A003846FCF79EF90AF1FF3AB8
:1043D000074648E753F8040B5BF8041B039202936B
:1043E000FCF792F901464046FCF786F8DDE9023217
:1043F00080460AF1010A01998A4501DCCA45E9DDD6
:104400005AAB03EB890949F8A08C013F31E7649B63
:10441000022B07DC002B4EDC2ED006F007005BB031
:10442000BDE8F08F649B032BF7D10DF1C80B0BEBAC
:104430008407B846A246BAF1000F49DCA146B9F19B
:10444000010F60DC0020012C76DC329A339B002DBA
:1044500078D100990A600A464B609060DDE757F812
:104460002410FCF749F8013C002CF8DA0DB100F1FA
:104470000040009B1860D0E7002032AFF4E757F807
:104480002810FCF739F808F1FF38B8F1000FF6DA18
:10449000ADB100F10043009A014613603298FCF779
:1044A00029F84FF0010844450BDA0DB100F1004046
:1044B000009B5860B1E7A046002032AFE5E7034615
:1044C000E9E757F8041FFCF717F808F10108EAE7D5
:1044D000D8F8003058F8042C19461046029301927F
:1044E000FCF70AF8019A014681461046FCF702F8EB
:1044F000029B0AF1FF3A1946FBF7FEFF48F8040950
:10450000C8F8009097E757F8043CD7F800A0184681
:1045100051460193FBF7F0FF019B01468046184688
:10452000FBF7E8FF5146FBF7E7FF47F8040909F1FD
:10453000FF39C7F8008082E75BF82410FBF7DCFF47
:10454000013C80E7009902F1004203F100430A6058
:104550004B600A4600F100407FE700BF30F00042A8
:1045600038B503460D4604462ED0B2F1FF4F04D3B2
:104570000146FBF7C1FF034626E010F0FF4F18D1BC
:104580004FF09841FCF7C0F8174A034695420CDB00
:104590000446C0F3C752193A4CF250318D420ADD3D
:1045A0001249184661F31E0000E01149FCF7ACF80F
:1045B000E1E7D20DF0E75119FE29F1DC002905DD14
:1045C00024F0FF4444EAC153184638BD11F1160FD8
:1045D00001DA0749E5E701F1190024F0FF444FF043
:1045E0004C5144EAC050E1E7B03CFFFFCAF24971C8
:1045F0006042A20D70B5C0F3C7557F3D162D014630
:10460000044620F0004626DC002D0FDA1749FBF7A0
:1046100073FF0021FCF734FA30B1002C23DA002EAE
:10462000134C08BF4FF0004421461AE0114E2E41B2
:10463000304216D00D49FBF75FFF0021FCF720FA4E
:104640000028F1D0002CBEBF4FF400032B41E4182A
:1046500024EA0604E8E7B6F1FF4F02D3FBF74CFF6C
:104660000146084670BD0024DEE700BFCAF249716A
:10467000000080BFFFFF7F00002310B50446C0E9A3
:104680000033C0E90433836081814366C281836162
:10469000194608225C3000F06BFA0D4B246263620D
:1046A0000C4BA3620C4BE3620C4B23630C4B9C4200
:1046B00006D003F16802944202D0D0339C4205D167
:1046C00004F15800BDE8104000F0DCBA10BD00BF96
:1046D000454900086B490008A3490008C74900087C
:1046E000F8010020024A0349034800F069B800BFFE
:1046F0000C000020FD5D00081C00002041680C4BF0
:1047000010B59942044601D001F078FBA168094B2D
:10471000994202D0204601F071FBE168064B9942B4
:1047200004D02046BDE8104001F068BB10BD00BFBA
:10473000F801002060020020C802002010B50B4BD9
:104740000B4C0C4A20461A6004210022FFF794FF0C
:1047500004F1680001220921FFF78EFF04F1D00067
:104760000222BDE810401221FFF786BF300300206F
:10477000F8010020E5460008014800F084BA00BFB7
:1047800039030020014800F07FBA00BF3903002040
:1047900010B50446FFF7F0FF236A1BB1BDE81040D7
:1047A000FFF7F0BF044B2362044B1B68002BF5D1CD
:1047B000FFF7C4FFF2E700BFFD460008300300200A
:1047C0002DE9F8430746884614460026D4E90195AA
:1047D000B9F1010905D52468002CF7D13046BDE8B0
:1047E000F883AB89012B07D9B5F90E30013303D01B
:1047F00029463846C04706436835E9E70FB407B590
:10480000064904AB086853F8042B8168019300F053
:1048100081FE03B05DF804EB04B07047180000207F
:10482000024B01461868826801F071BB1800002035
:10483000036A70B505460E4684680BB9FFF7A8FFFA
:10484000636EDB0705D4A389980502D4A06D00F040
:104850001AFAA389190702D52369002B35D12146FD
:10486000284600F02FF980B34FF0FF35636EDA076A
:1048700005D4A3899B0502D4A06D00F005FA284653
:1048800070BD002B04DAA2699A4217DC0A2915D000
:1048900023685A1C22601970A36816F8011F013B97
:1048A000A3600029EDD1002B11DA22460A21284607
:1048B00000F0CAF80130D7D00A25D7E722462846AB
:1048C00000F0C2F80130E7D1CEE7013EE4E723680B
:1048D0005A1C22600A221A70EEE70000024B0146C1
:1048E0001868FFF7A5BF00BF180000200EB44FF4F2
:1048F000017270B500259DB021AC54F8046BADF881
:1049000014201B9502900690FBF72CFC0B4B039098
:104910000B934FF6FF7307900948ADF816303246F7
:10492000234602A900680F951495019400F056FCE7
:104930001DB0BDE8704003B0704700BF6749000874
:104940001800002010B50C46B1F90E1000F04CF91B
:104950000028ABBF636DA3891B1823F48053ACBF41
:104960006365A38110BD002070472DE9F0411F460B
:104970008B890546DB050C46164605D50223002229
:10498000B1F90E1000F01EF9A389324623F48053CA
:10499000A38128463B46B4F90E10BDE8F04100F073
:1049A00035B910B50C46B1F90E1000F00BF9431CE7
:1049B000A38915BF606523F4805343F48053A3811A
:1049C00018BFA38110BDB1F90E1000F0EBB830B5DF
:1049D0001446002C05461A469BB005DA8B2303606B
:1049E0004FF0FF301BB030BD4FF40273ADF80C3008
:1049F0004FF0000319930CBF234604F1FF330293D9
:104A000005934FF6FF7300910491ADF80E3069469F
:104A10001E9B00F08DFA431CBCBF8B232B60002C27
:104A2000E0D00022009B1A70DCE7000007B500937D
:104A300013460A46014603480068FFF7C8FF03B063
:104A40005DF804FB18000020F8B50E461446054634
:104A500018B1036A0BB9FFF79BFEA369A360A38992
:104A60001A0701D5236943B92146284600F02AF8E0
:104A700018B14FF0FF373846F8BD23682269F6B207
:104A8000981A63693746834205DC2146284601F0BF
:104A9000B5F90028EDD1A368013BA36023685A1C37
:104AA00022601E706269431C9A4204D0A389DB070E
:104AB000E1D50A2EDFD12146284601F09FF90028D2
:104AC000D9D0D6E738B5294B054618680C4618B139
:104AD000036A0BB9FFF75CFEB4F90C30190722D456
:104AE000DA0607D409222A6043F040034FF0FF3072
:104AF000A38133E0580712D5616B41B104F144033F
:104B0000994202D0284600F0C1F800236363A389CC
:104B100023F02403A3810023636023692360A38916
:104B200043F00803A38123694BB9A38903F42073DD
:104B3000B3F5007F03D02146284601F0ACF9B4F963
:104B40000C3013F001020AD00022A26062695242C6
:104B5000A261226942B913F08000C5D138BD99071E
:104B600058BF6269A260F4E70020F7E71800002050
:104B700003460244934200D1704703F8011BF9E752
:104B800010B56AB10139841810F8012B11F8013FF2
:104B90009A4203D1A04201D0002AF5D1D01A10BD0B
:104BA0001046FCE738B50023054D044608462B6047
:104BB000FDF73EFA431C02D12B6803B1236038BDD8
:104BC0003403002038B50446084611460022054D3E
:104BD0002A601A46FDF736FA431C02D12B6803B14E
:104BE000236038BD3403002038B50446084611461A
:104BF0000022054D2A601A46FDF7FEF9431C02D13A
:104C00002B6803B1236038BD3403002038B5044657
:104C1000084611460022054D2A601A46FDF7FAF9AA
:104C2000431C02D12B6803B1236038BD340300203C
:104C3000014B1868704700BF1800002070B50026AF
:104C40000C4D0D4C641BA410A64209D101F08EFB43
:104C500000260A4D0A4C641BA410A64205D170BD63
:104C600055F8043B98470136EEE755F8043B984762
:104C70000136F2E70C7F00080C7F00080C7F00086B
:104C8000107F0008704770477047000038B5054630
:104C9000002940D051F8043C0C1F002BB8BFE41889
:104CA00000F0DEF81C4A136833B9636014602846CC
:104CB000BDE8384000F0DAB8A34208D920682118CE
:104CC0008B4201BF19685B6809182160EDE71A463D
:104CD0005B680BB1A342FAD911685018A0420BD1FE
:104CE00020680144501883421160E0D118685B6865
:104CF000084410605360DAE702D90C232B60D6E732
:104D0000206821188B4201BF19685B68091821606F
:104D100063605460CBE738BD4003002070B50F4E90
:104D20000C463168054611B901F0D2F930602146D0
:104D3000284601F0CDF9431C03D14FF0FF34204643
:104D400070BDC41C24F00304A042F8D0211A2846E8
:104D500001F0BEF90130F2D1EFE700BF3C030020C3
:104D60002DE9F843CD1C25F0030508350C2D38BF7F
:104D70000C25002D064601DBA94204D90C23336023
:104D80000020BDE8F883DFF8D48000F069F8D8F897
:104D900000301C4644BB29463046FFF7BFFF431C8A
:104DA000044658D1D8F800402746002F43D1002CA4
:104DB0004BD023683946304604EB030901F088F9EB
:104DC000814542D1216830466D1A2946FFF7A6FF7A
:104DD00001303AD023682B442360D8F800305A6859
:104DE00062BBC8F800700FE02268521B20D40B2A67
:104DF00017D96119A342256018BF5960636808BFBD
:104E0000C8F8001062514B60304600F02FF804F1F2
:104E10000B00231D20F00700C21A1CBF1B1AA35051
:104E2000AFE76268A3420CBFC8F800205A60EBE706
:104E300023466468AEE73C467F68B6E71A465B687F
:104E4000A342FBD100235360DEE70C2330463360DE
:104E500000F00CF894E70560D6E700BF400300209F
:104E60000148FFF710BF00BF380300200148FFF7DB
:104E70000BBF00BF380300202DE9F0471F468E68A6
:104E80008246BE420C4690460B682DD8B1F90C20E4
:104E900012F4906F26D06569096905EB4505A3EB0F
:104EA000010905EBD5757B1C4B446D109D4238BF45
:104EB0001D46530527D52946FFF752FF064660B326
:104EC0004A46216901F022F9A38923F4906343F053
:104ED0008003A38126614E4426603E466561A5EBB2
:104EE0000905A560BE4200D93E46324641462068CB
:104EF00001F0B2F80020A3689B1BA3602368334431
:104F00002360BDE8F0872A4601F00EF90646002826
:104F1000E0D150462169FFF7B9FE0C23CAF80030F2
:104F2000A3894FF0FF3043F04003A381E9E700007D
:104F30002DE9F04F98468B8907461B060D4614460F
:104F40009DB010D50B6973B94021FFF709FF2860A8
:104F5000286130B90C233B604FF0FF301DB0BDE835
:104F6000F08F40236B610023099320238DF82930B3
:104F700030234FF00109CDF80C80DFF898818DF8CF
:104F80002A3023469A4613F8012B0AB1252AF9D173
:104F9000BAEB040B0BD05B46224629463846FFF796
:104FA0006BFF013000F0A780099A5A4409929AF8E1
:104FB0000030002B00F09F8000234FF0FF32CDE93E
:104FC00005230AF1010A049307938DF853301A93CD
:104FD0005446052214F8011B4E4801F089F8049A42
:104FE000D8B9D00644BF20238DF85330110744BFF1
:104FF0002B238DF853309AF800302A2B15D05446C5
:1050000000204FF00A0C079A214611F8013B303B73
:10501000092B4BD9B0B1079214E0A0EB080309FAB1
:1050200003F31343A2460493D2E7039B191D1B68A5
:105030000391002BBBBF5B4242F002020793079330
:10504000B8BF049223782E2B0AD163782A2B32D151
:10505000039B02341A1D1B68039243EAE373059312
:10506000DFF8B4A003225046217801F041F838B1AE
:105070004022049BA0EB0A008240134301340493B6
:1050800014F8011B062225488DF8281001F030F88D
:10509000002836D0224B1BBB039B073323F00703AA
:1050A00008330393099B334409936AE70C460120B4
:1050B0000CFB0232A8E700234FF00A0C194601341A
:1050C0000593204610F8012B303A092A03D9002B0A
:1050D000C6D00591C4E7044601230CFB0121F0E78B
:1050E00003AB00932A4638460E4B04A9AFF3008069
:1050F000421C0646D6D1AB895B063FF52DAF099819
:105100002CE703AB00932A463846064B04A900F06F
:105110008BFBEDE7C6730008CC730008D073000862
:1051200000000000794E000838B54B1C144603D12E
:105130004FF0FF35284638BD9389CDB223F02003C8
:105140009381636B52688BB1A36B934208DD236834
:105150005A1E226003F8015C636801336360E9E76B
:10516000214600F041FF0028F1D0E1E721692368E2
:1051700051B1994208D213F8011CA94204D1013B54
:10518000013223606260D5E7C4E90F3204F14403C1
:1051900063630323A363234603F8465F236001236D
:1051A000DCE710B50C46496B69B104F14403994240
:1051B00001D0FFF76BFD0020236C6063636013B1C7
:1051C000E36B236010BD23694FF0FF3023600023A1
:1051D0006360A38943F02003A381F3E72DE9F04F37
:1051E0000C4600210646ADF5237DCDE94411AB49BF
:1051F0000DF10408A091AA49AA4FCDF81881A191F8
:10520000009392F80090B9F1000F00F0598117F85F
:105210000930551C13F0080319D06368002B0FDD0B
:1052200023681A78BA5C120701D42A46E9E7459A3E
:1052300001330132459262682360013A6260ECE713
:1052400021463046A19B98470028E9D0EDE7B9F107
:10525000250F40F086804193439353782A2B04BF57
:105260001023951C4FF00A0208BF4193AA461AF872
:10527000011BA1F13003092B1ED9DFF82CB2032248
:10528000584600F035FF38B101235546419AA0EB4E
:105290000B0083401343419315F8013B782B06D84C
:1052A000572B10D8252B5CD056D8002B74D0032355
:1052B00047930A23429387E0439B554602FB031121
:1052C00030394391D2E7A3F15802202AEFD801A147
:1052D00051F822F0A7530008AF520008AF5200085F
:1052E00001540008AF520008AF520008AF52000846
:1052F000AF520008AF520008AF520008AF5200088A
:1053000017540008FD5300085F5300085F5300085E
:105310005F530008AF520008B9530008AF520008AD
:10532000AF520008AF520008AF52000827540008DF
:10533000C15300089F530008AF520008AF52000845
:1053400023540008AF520008FD530008AF52000874
:10535000AF520008A7530008453B022BA7D80523EE
:1053600031E06368002B0DDD23681A784A4540F070
:10537000A780013362682360459B013A0133626074
:10538000459352E721463046A19B98470028EBD031
:105390004498002840F08C804FF0FF308CE0419A18
:1053A00042F020024192419A42F40072419210224E
:1053B0006E2B429202D905E000234293032302E0C0
:1053C00008234293042347936368002B39DD419BF4
:1053D000590604D423681A78BA5C120738D4479B5C
:1053E000022B47DC6B462246304641A900F03AFBCF
:1053F000012865D002287FF418AFC9E70A22D7E751
:105400002946404600F0B7FD419B054643F0400366
:1054100041930123D7E7419B43F04003419300238D
:10542000D1E70223CFE74198C3063FF5FEAE009BCC
:10543000459A191D00911B68C0074CBF1A801A605D
:10544000F3E621463046A19B98470028BFD09FE74E
:10545000459A013245926268013A002A626002DD93
:1054600001332360B6E721463046A19B98470028C8
:10547000B0D08DE7042B06DC6B462246304641A9AE
:1054800000F04AFBB4E7094B002B3FF4CEAE6B466D
:105490002246304641A9AFF30080A9E72951000810
:1054A000A3510008017E0008CC7300080000000032
:1054B000A3895B063FF570AF0DF5237DBDE8F08F46
:1054C0004498F9E7936810B4013B002B936007DA26
:1054D0009469A34201DB0A2902D110BCFFF7B4BAD8
:1054E0001368581C10601970084610BC7047F8B556
:1054F00006460F461446D518AC4201D1002007E0FD
:105500003A46304614F8011BFFF7DCFF431CF3D189
:10551000F8BD00002DE9F04F0D46144698460646AA
:105520009DB018B1036A0BB9FFF732F96B6ED9075A
:1055300005D4AB899A0502D4A86DFFF7A4FBAB890B
:105540001B0701D52B699BB929463046FFF7BAFAEC
:1055500070B16B6EDC0704D54FF0FF301DB0BDE8B5
:10556000F08FAB899805F7D4A86DFFF78DFBF3E7B3
:105570000023099320238DF8293030234FF00109AF
:10558000CDF80C80DFF8A8818DF82A3023469A46A2
:1055900013F8012B0AB1252AF9D1BAEB040B0BD071
:1055A0005B46224629463046FFF7A1FF013000F056
:1055B000A780099A5A4409929AF80030002B00F00B
:1055C0009F8000234FF0FF32CDE905230AF1010A45
:1055D000049307938DF853301A935446052214F818
:1055E000011B534800F084FD049AD8B9D10644BF8A
:1055F00020238DF85330130744BF2B238DF85330ED
:105600009AF800302A2B15D0544600204FF00A0C8F
:10561000079A214611F8013B303B092B4BD9B0B119
:10562000079214E0A0EB080309FA03F31343A24620
:105630000493D2E7039B191D1B680391002BBBBF8A
:105640005B4242F0020207930793B8BF04922378AB
:105650002E2B0AD163782A2B32D1039B02341A1DD8
:105660001B68039243EAE3730593DFF8C8A00322A3
:105670005046217800F03CFD38B14022049BA0EB5D
:105680000A00824013430134049314F8011B0622DC
:1056900029488DF8281000F02BFD00283FD0274B1B
:1056A0001BBB039B073323F0070308330393099BBA
:1056B0003B4409936AE70C4601200CFB0232A8E741
:1056C00000234FF00A0C194601340593204610F8C8
:1056D000012B303A092A03D9002BC6D00591C4E723
:1056E000044601230CFB0121F0E703AB00932A469B
:1056F0003046134B04A9AFF300800746781CD6D17F
:105700006B6ED90705D4AB899A0502D4A86DFFF753
:10571000BBFAAB895B063FF51FAF09981EE703ABE9
:1057200000932A463046064B04A900F07DF8E4E7D2
:10573000C6730008CC730008D07300080000000096
:10574000EF5400082DE9F047164698468A680B6921
:1057500007469342B8BF1346336091F843200C4686
:10576000DDF820900AB1013333602368990642BF07
:10577000336802333360256815F0060506D104F15D
:10578000190AE36832689B1AAB422BDC94F8433069
:105790002268003B18BF0123920630D441463846A8
:1057A00004F14302C847013023D02368226903F083
:1057B0000603042B14BF002533684FF0000608BF12
:1057C000E56804F11A0408BFED1A54F8123C08BF4A
:1057D00025EAE5759342C4BF9B1AED18B5421AD16C
:1057E000002008E00123524641463846C8470130B0
:1057F00003D14FF0FF30BDE8F0870135C1E730201D
:10580000E11881F843005A1C94F8451022440233F1
:1058100082F84310C2E70123224641463846C84772
:105820000130E6D00136D9E72DE9FF470F7E9146DA
:10583000782F80460C469A460C9E01F1430207D809
:10584000622F0AD8002F00F0D180582F00F0B880C6
:1058500004F1420684F842703AE0A7F16303152B85
:10586000F6D801A151F823F0C1580008D558000816
:105870005158000851580008515800085158000864
:10588000D5580008515800085158000851580008D0
:1058900051580008D3590008FF5800088D590008D6
:1058A0005158000851580008F5590008515800088F
:1058B000FF58000851580008515800089559000831
:1058C00033681A1D1B68326004F1420684F84230C6
:1058D00001239CE033682068191D3160060601D55C
:1058E0001D6803E04506FBD5B3F90050002D03DA2F
:1058F0002D236D4284F843300A23584811E0216873
:105900003368080653F8045B02D4490648BFADB2B9
:105910006F2F336014BF0A2308235048002184F8F6
:1059200043106668002EA66005DB21682E4321F037
:10593000040121604BD01646B5FBF3F103FB115770
:10594000C75D06F8017D2F46BB420D46F4D9082BF2
:105950000BD12368DF0708D5236961689942DEBF50
:10596000302306F8013C06F1FF36921B22614B46BC
:1059700021464046CDF800A003AAFFF7E3FE013020
:105980004AD14FF0FF3004B0BDE8F087236843F000
:10599000200323607827324884F8457023683168F3
:1059A0001F0651F8045B02D45F0648BFADB23160F8
:1059B000D90744BF43F0200323601DB11023ADE796
:1059C0002648E9E7236823F020032360F6E716461C
:1059D000BDE733682568181D616930602E061B68B5
:1059E00001D5196002E06806FBD519800023164630
:1059F0002361BCE7336800211A1D32601E686268AB
:105A0000304600F075FB08B1801B6060636823615D
:105A1000002384F84330AAE73246494640462369CA
:105A2000D0470130ADD023689B0713D4E068039BB7
:105A30009842B8BF1846A6E7012332464946404679
:105A4000D04701309DD00135E36803995B1AAB4222
:105A5000F2DCEBE7002504F11906F5E7D77300083F
:105A6000E87300082DE9F84315468A6880460C461D
:105A700032B98A69002A14BF4FF0FF3201228A60CE
:105A800000272268DFF88C90D1065FBF1A68111DCD
:105A900019601668A06988B1012807D12B681A78A7
:105AA00063699B5C53B9002F31D022E0022820D1DA
:105AB0002B681B7819F803301B071AD423680137A9
:105AC000DA065EBF2B681B7806F8013B2A686B6814
:105AD00001322A60A268013B013A6B60A26042B1C8
